:020000040000FA
:10000000A0070020A9010000B5010000B701000011
:1000100000000000000000000000000000000000E0
:10002000000000000000000000000000B901000016
:100030000000000000000000BB010000892A000051
:10004000FD2B0000BF010000892D0000BF01000052
:10005000BF010000BF010000BF010000BF010000A0
:10006000BF010000BF010000BF010000BF01000090
:10007000BF010000BF010000BF010000BF01000080
:10008000BF010000BF010000BF010000BF01000070
:10009000BF010000BF010000BF010000BF01000060
:1000A000BF010000BF01000000F002F800F050F8AE
:1000B0000CA030C8083824182D18A246671EAB467D
:1000C00054465D46AC4201D100F042F87E460F3EF8
:1000D0000FCCB6460126334200D0FB1AA246AB46EF
:1000E00033431847487A0000687A0000103A02D378
:1000F00078C878C1FAD8520701D330C830C101D5C9
:1001000004680C60704700000023002400250026CE
:10011000103A01D378C1FBD8520700D330C100D5C3
:100120000B60704710B5662902D103F087FE10BD41
:10013000002010BD1FB500F007F900F051FD0400CC
:100140000020002103F052FDE0601FBD10B510BD7E
:1001500001F010F91146FFF7EDFF03F089FB01F004
:1001600028F903B4FFF7F2FF03BC01F06FF90000B8
:1001700030B40C490C684A6823681068C0181060D5
:10018000241D121D8C4207D28A4208D20C604A609C
:1001900030BC4000400870470C00DC3CF6E70A0029
:1001A000DC3AF3E73404002008488046C146804723
:1001B00007480047FEE7FEE7FEE7FEE7FEE7FEE74B
:1001C00004480549054A064B70470000992A00007B
:1001D000A9000000A0040020A0070020A005002026
:1001E000A00500200FB41CB5074B06AA7B44694646
:1001F0000090059800F0DBFC0020694600F0EAFC66
:100200001CBC08BC04B01847E5090000F3B504465F
:10021000002081B020622046E168884700287AD01B
:10022000252802D06268A16871E0E16820460025B7
:10023000884706460020E0610746A0612A2E0AD0C2
:10024000304603F0EDFA002827D0B8000019303E00
:100250000090866119E00298BA00121902C89161F3
:1002600002902046E1688847012F064617D1E069D1
:1002700000281FDA202085431CE000980A218069AD
:10028000484300998019303888612046E1688847E2
:10029000064603F0C5FA0028EFD1012F0AD02E2E12
:1002A00008D12046E16888470646202005437F1C88
:1002B000022FC3DBA069002803DA4042A0610120BD
:1002C0000543E80701D010208543002E23D0304697
:1002D0004138192803D80120C002054320362046A2
:1002E00025603146029A1546FFF71CFF00280BD007
:1002F000012806D0ED1DE808C000083002908AE70A
:1003000009E02D1D029586E762683046A168904796
:10031000206A401C7EE7206AFEBD00000B4A30B513
:1003200011460B4C60310B46DC3B0CC1372106E01B
:10033000020C8D0012185A51064A504300190A4601
:10034000491E002AF4DC30BD0120E7E7D403002079
:10035000E119D666CD0D0100002203098B422CD392
:10036000030A8B4211D300239C464EE003460B4305
:100370003CD4002243088B4231D303098B421CD367
:10038000030A8B4201D394463FE0C3098B4201D359
:10039000CB01C01A524183098B4201D38B01C01A91
:1003A000524143098B4201D34B01C01A5241030908
:1003B0008B4201D30B01C01A5241C3088B4201D3B7
:1003C000CB00C01A524183088B4201D38B00C01A64
:1003D000524143088B4201D34B00C01A5241411A8B
:1003E00000D201465241104670475DE0CA0F00D06E
:1003F0004942031000D34042534000229C46030967
:100400008B422DD3030A8B4212D3FC22890112BAEC
:10041000030A8B420CD3890192118B4208D38901C4
:1004200092118B4204D389013AD0921100E08909DC
:10043000C3098B4201D3CB01C01A524183098B42BD
:1004400001D38B01C01A524143098B4201D34B01A6
:10045000C01A524103098B4201D30B01C01A524109
:10046000C3088B4201D3CB00C01A524183088B4290
:1004700001D38B00C01A5241D9D243088B4201D319
:100480004B00C01A5241411A00D201466346524104
:100490005B10104601D34042002B00D54942704703
:1004A00063465B1000D3404201B50020C046C04601
:1004B00002BD7047704770470121C90501234118EB
:1004C00042001B06D3185B0E0AD0C1100722D206C9
:1004D000891840075242D14201D55200891870470D
:1004E000090208D50146002A03D0C10FC907002020
:1004F000704710467047420202D000200249704700
:10050000072109050143F4E70000F87FF0B5FF2556
:100510002D04C609C209FF2704462E400137CB0926
:100520003E4348402A402B400746002A6BD0002B10
:1005300069D0AA4267D0AB4265D0002800DA3246C3
:100540000125ED0529432C4309022002090AD21A8C
:100550004B0C7F24E31A434C000A7C44E35C7D246B
:100560002404121914145B00A218884201D3521CEF
:1005700000E0400049420C465C4324115C43DB012F
:100580006415E318040A5C43C502200D0C4644437D
:100590006419250A5D432303EC0C0D4665430003F3
:1005A0000019EB184C42A34201D35B18401CD40540
:1005B0002018002B07D05B00C91804D3401C002969
:1005C00001D1400840003F2189048A4209D3002A12
:1005D00008DC1106090F04D0032149074018C00F99
:1005E000C007F0BD01224100120689187F22520681
:1005F0009142F6D205214907C84201D59010F0BDBD
:10060000FF20C005F0BD002F00DA32461648AA428E
:1006100007D2AB4205D21902090E17D0F80FC00756
:10062000F0BDFF2563002D06AB42F9D84900A94271
:10063000F6D8AB4201D1A942F2D0A94201D10021A2
:1006400001E061004908D0050843F0BD1102090E20
:10065000FBD0FF200243D005F0BD0A4601461046FC
:1006600054E70000FA7400000000C07F10B5014696
:100670009E240002CA15A307002A02D01843002AAC
:1006800004DBA21A002A0CDDD04010BD1206120EA7
:1006900001D140004008A21A03D4D04040420028B3
:1006A000F3DDFF2248001206904201D9002010BD60
:1006B000C817C043584010BD0102C21504D0012321
:1006C000DB071943002A0ADB9E239A1A02D4084644
:1006D000D0407047FF2241001206914201D900200C
:1006E0007047C017C04370471F22030C02D10F226E
:1006F00000041CD0030E01D10002083A030F01D1FF
:100700000001121F830F01D18000921E002801DB1F
:100710004000521ED2055118021251181922904061
:1007200004D3491C002801D14908490008467047F4
:10073000C10FC90700D04042012292071143D3E7FD
:1007400001218907D0E7000010B5FF22C30D134037
:1007500009D05A4007D0914205DA5C42A14202DD3D
:10076000C905081810BDC40FE407002B06D0002AE5
:1007700006D0002902DBFF20C0050443204610BD3F
:100780004102FCD0004810BD0000C07F7047FFB59B
:100790000C461E468FB003CA089009914F007D0D8C
:1007A00000D16D1E002108460020C0460321099A91
:1007B00089050840002A03DA8200801840080840B2
:1007C000800D01280A9002DD0020C0430A9008989D
:1007D00007430DD0F048F1492818484307141898EA
:1007E00000281DD07542291E1DDD0A9842421BE0DB
:1007F0001898012802D00020302104E00020F243A4
:1008000005E02154401CB042FBDB30460022189B1F
:10081000002121540F998B600A60486013B0F0BD2D
:10082000BD1B6D1CDFE70A9A002900DA69420BA89C
:1008300000F05CFA0BAB07CB03AB07C30899099830
:1008400000F0C0FA6B4607C30146D5480918002DD1
:1008500000910BDDD24903980A9A494240180023BF
:1008600003A90390684600F01DFD08E003990A9A69
:100870000023081803A90390684600F0BDFC6B46EE
:1008800007C30004000C03D00020C043410800E06F
:100890001046189A002A03D00022009215461EE046
:1008A000751E05D400F0A0F9303262556D1EF9D5E1
:1008B00001220843079602D000227F1C04E0207822
:1008C000302801D100227F1E002A069787D01EE023
:1008D000112D07DA00F088F9303262556D1C02469E
:1008E0000A43F5D1084303D00098002819D00EE040
:1008F0000021681E05E0235C625C63542254401EA4
:10090000491C8142F7DBA81B401E07950690079AF9
:1009100018990020A0540F98079B069A81600CC07C
:100920007CE711260020189059E7D21DF0B50D463E
:100930000446D10893B0C90003C90C900D9102F090
:1009400059FF02460D98C00F01D02D2007E0206806
:10095000810701D52B2002E04007C00F4001032A88
:100960000F9001D0072A05DB03462946204600F0F8
:1009700079F90EE12078800601D5E76900E00627C5
:100980002846652D04D0662814D0672D69D12DE046
:100990000020112F009001DB112300E07B1C0CAA2A
:1009A00003A910A8FFF7F3FE1199002610987D1CEB
:1009B0000E9142E001203B460CAAC0070B9001209B
:1009C000009003A910A8FFF7E2FE119D129810995C
:1009D000002600280E9501D1781C0D18781B02D432
:1009E00046427D1C761EE81B00903AE0012F00DA9B
:1009F00001270020112F009001DD112300E03B466C
:100A00000CAA03A910A8FFF7C2FE11993D46109841
:100A100000260E91217809070BD40E99A94200DA1D
:100A20000D4603A9012D04DD4A19203AD27F302A50
:100A300006D0B84201DA011D04DA012100910FE06D
:100A40006D1EEFE7002802DC86192D1A03E0411C19
:100A5000A94200DD0D46801B401C00900120C0070C
:100A60000B902078000705D40098A84202DB0020F4
:100A7000C043009069460020C8720B98012102AF64
:100A80000337C907884225D0022010902B201190EF
:100A90000B9800280BDA40420B902D20119006E0B5
:100AA0000B9800F04FFC30317F1E0B90397010997D
:100AB000481E00291090F3DC0B980028F0D1119803
:100AC0007F1E38702088000501D5452000E0652094
:100AD0007F1E387001A8C01BC01D0B900F98002806
:100AE00000D0012041190098C01709180B98081868
:100AF000A169081A401EA0612078C00602D42046D1
:100B0000C046C0460F98002805D06268A16890478B
:100B1000206A401C20622078C00625D52046C046A9
:100B2000C04621E0002E07DB0E98B04204DD03A88A
:100B30006268805DA16802E06268A1683020904729
:100B4000206A761C401C20620098401E00280090FD
:100B50000AD100F045F8C06862680168405CA1688D
:100B60009047206A401C206228466D1E0028D9DC70
:100B700007E062683878A1687F1C9047206A401CB3
:100B800020620B99481E00290B90F2DC2046C046DB
:100B9000C046032042E6000001FCFFFF104D0000AC
:100BA000E1DFFFFF01694A1C02610878704700B568
:100BB0008FB0029100210591054901937944039179
:100BC000114604906846FFF721FB0FB000BD0000FE
:100BD000E5FFFFFF0A681070521C0A6070470000B2
:100BE000004870475C0400200B4670B50246890738
:100BF0008008084319469D08141AA94125090807C9
:100C0000054308092C194841250A01060D43010A2C
:100C10002C194141200C0D0428430D0C00194D41A5
:100C2000002140194D41C00869070843E908840FB5
:100C30008D002543840024184D4124196D41121B59
:100C4000AB4107E00925ED432C1152196341002403
:100C5000401C61411C460A250026551BB441F1D2B7
:100C600070BD0000F8B51F46044601230068DB0292
:100C7000032601461840072A05DB002801D017A5E6
:100C800006E017A504E0002801D016A500E016A58F
:100C9000102081432160A069C01E002FA06101D0F7
:100CA000401EA0612046C046C046002F09D03846ED
:100CB0006268A1689047206A401C2062C01C2062C4
:100CC00006E0206AFAE762682878A1686D1C904700
:100CD000761EF8D22046C046C046F8BD4E414E00B2
:100CE0006E616E00494E4600696E6600F7B51646A5
:100CF0008AB0334878446C4603467C33C06F5A68E8
:100D00009B680DC42E487844763003AC0DC80DC4E2
:100D10003720C001081837211B30FFF727FB054695
:100D20000C46803D1B3C02D56442012000E00020BF
:100D30000027099010E0E0070CD00C2020497843F0
:100D4000794432464C3941186846012300F054FA80
:100D50006B4607C364107F1C002CECD1184F7F44F6
:100D60002E3F16E0E80712D02001C0190EC80691E8
:100D7000089307920068F04201D198190890324612
:100D8000012306A903A800F037FA03AB07C36D10CF
:100D9000641C002DE6D10998002806D03246694629
:100DA000012303A800F07EFA05E0012332466946DC
:100DB00003A800F021FA0A9B07C30DB0F0BD0000A4
:100DC000A06D0000034640000A4610B5400D0BD050
:100DD0000121C9070F24A40200191C036408214340
:100DE000540D2143D20207E000210120F2E7D40F85
:100DF000490021435200401E0029F8DADB0FDB07CF
:100E0000184310BDFFB50D46144685B048685168BB
:100E100002F0D8FC00910190A868A16802F0D2FC11
:100E200002910390A868616802F0CCFC029A121843
:100E30008242029201D2012000E00020019A0B18A8
:100E4000D2180028019202D08A4202D903E08A42D5
:100E500001D2012000E00020009908180090686885
:100E6000A16802F0AFFC029A12188242029201D2EB
:100E7000012000E00020019A0B18D21800280192EE
:100E800002D08A4202D903E08A4201D2012000E066
:100E90000020009908180090286821684000490047
:100EA000400849084018FA49471814E001994000E1
:100EB000C90F08430090019802994000C90F0843E8
:100EC0000190029803994000C90F084302900398CB
:100ED00040007F1E039000980028E7DA0898002859
:100EE00001D0EC4E00E00026B74201DA012000E01C
:100EF0000020002804902AD0F71BF806C00E15D059
:100F0000029B2021091A039A8B401A430392029AEA
:100F1000019BC2408B401A430292019A009BC2403F
:100F20008B4000991A430192C14000917B110DD072
:100F30006F460320C11A03D500218200B95003E097
:100F40008A008100BA587A50401EF3D5374603987C
:100F50000299002800D0012001430898029100283E
:100F600008460CD0002800D001200199019A4905BB
:100F700008430121D20AC902D202019200E00121F4
:100F80000E9B0122D207012B02D0002B03D013E0CD
:100F9000002807D120E0904204D890420CD1019B58
:100FA0000B4209D0019B5918019105D10099491CA8
:100FB000009101D17F1C009200280DD0102108461D
:100FC0000020C0460498002806D00F98002803D0BF
:100FD000082108460020C04628682168019B009A25
:100FE0004840C10F0598C90739430EC009B0F0BD8C
:100FF000FFB587B0099A08980899536892684068C5
:10100000896896460022039317469446089A126808
:101010005300099A5B081268520052089A1A9E4BB4
:10102000D4180A9A002A01D0352200E04022069204
:101030000022012315460492DB07059324E0002DCE
:1010400005D175460346039E4D1BB34109D3754632
:101050006646039B491B049D9841059B7519AC4648
:101060005F4163463B4308D0059B049EDD0776083D
:101070002E435B080496059301E0521E641EC50FC3
:10108000ED0749184041521C069B9A42D7DB002DC0
:1010900004D17546039A6B1A824101D203200CE0F9
:1010A000039A0B466B404240134303D0014303D0E5
:1010B000012002E0022000E00020614601910021B1
:1010C000009702910A99002905D061464002014328
:1010D000704B019102E08007002302909C4201DAEC
:1010E000012000E0002007003AD01A1BD006C00EF5
:1010F00015D0029D2021019C091AC5408C40254332
:10110000029C8C4000D001242543019C0295009D47
:10111000C4408D4000992C430194C140009154116A
:101120001DD06D460221002202290CD10320001B94
:1011300007E0002804DB8600AE59002E00D0012213
:10114000401C0328F5DB081B02D588002A5004E068
:101150008000285810438A00A850491EE3D51C4639
:101160000A98002802980CD0002800D0012001998C
:10117000019A490508430121D20AC902D20201920B
:1011800000E00121109B0122D207012B02D0002B8D
:1011900003D013E0002807D11FE0904204D890420A
:1011A0000CD1019B0B4209D0019B5918019105D12B
:1011B0000099491C009101D1641C009200280CD0B8
:1011C000102108460020C046002F06D011980028A4
:1011D00003D0082108460020C04608980999019AC2
:1011E000009B006809684840C10F0798C907214360
:1011F00082600AC00BB0F0BD00B585B001930092CB
:101200000A460146002302A8FFF7FCFD02A807C812
:1012100005B000BDFFB50A461F4685B0079901938A
:1012200001230091014602A8FFF7ECFD0299039803
:10123000049ECA0F4900D20700920F224908920269
:101240008C1A0021002800DB0C46450013486D086D
:10125000844214D3079A002A04DA441E0026104D53
:10126000F64302E004460D460E46102108460020D3
:10127000C046002F03D0042108460020C0462005A8
:10128000E90A0843009908436905F20A1143ADE6EB
:1012900002C0FFFF013C0000FF3F0000FF0700000D
:1012A000FFFFFF7F00B585B0019300920A4601461B
:1012B000002302A8FFF79CFE02A807C8A8E7FFB515
:1012C0000A461F4685B00799019301230091014604
:1012D00002A8FFF78DFE02990398049ECA0F4900E9
:1012E000D20700920F22490892028C1A002100288E
:1012F00000DB0C46450011486D08844214D3079A60
:10130000002A04DA441E00260D4DF64302E004468E
:101310000D460E46102108460020C046002F03D07F
:10132000042108460020C0462005E90A0843009928
:1013300008436905F20A114358E60000FF07000060
:10134000FFFFFF7F01468008081A02091018020AF1
:101350001018020C1018C008820012185200891AC6
:1013600001E0401C0A390A29FBD270470048704747
:101370003C0400207546FFF7F9FFAE4605006946BC
:101380005346C008C000854618B020B5FEF718FFC8
:1013900060BC00274908B6460026C0C5C0C5C0C508
:1013A000C0C5C0C5C0C5C0C5C0C5403D49008D460B
:1013B000704710B50446C046C0462046FEF7D1FE31
:1013C00010BD0000024670B50A4392072AD11E4D97
:1013D000EE0104C808C9541B9443344017D0D0B25E
:1013E000D9B2401A2106014310D190B299B2401AE5
:1013F000210401430AD110021902000A090A401A05
:101400002102014302D1100E190E401A70BD9A42FA
:10141000DFD010BA19BA884201D9012070BD00206E
:10142000C04370BD02780B78401C491C002A09D0CB
:101430009A4207D102780B78401C491C002A01D03F
:101440009A42EFD0D01A70BD010101010149182064
:10145000ABBEFEE7260002007047000010B5FFF7A4
:101460006FF90849FFF752F8FFF726F802460B46D6
:1014700005A10748FEF7B6FE0521054800F00AF869
:1014800010BD000000002041252E31660000000044
:101490001800002030B504460023054D04E028461E
:1014A00000F015F85B1CDBB2E15C0029F7D130BD20
:1014B00000500040012A03D002698A43026170474C
:1014C00002690A43026170470221C16070474268A5
:1014D000D207FCD101607047F0B505ADE0CD002426
:1014E000002A00D00124002B01D002221443002D39
:1014F00001D004221443002E01D008221443002FEF
:1015000001D010221443089A002A01D0202214434B
:10151000002282600161846040680007800F01D072
:101520000120F0BD0020F0BD10B503218902401854
:10153000012100F0EBFC10BDF8B504460A25224E4F
:1015400029462046FEF708FF00912946FEF704FFD2
:101550000F4664212046FEF7FFFE0546B44216D82A
:101560000A2002F065F90121009802F001FB3846DB
:10157000022102F0FDFA2846032102F0F9FA0421C3
:101580000F2002F0F5FA022002F0D4FAF8BD012192
:10159000009802F0EDFA3846022102F0E9FA2846F6
:1015A0000A21FEF7D9FE0846032102F0E1FA7D2167
:1015B000C9002046FEF7D0FE042102F0D9FA02202D
:1015C00002F0B8FAF8BD0000E7030000FFB588B0EC
:1015D00006460F4600250A9C4AE0781B81B2079018
:1015E000301B069080B20B9A00F06BF907980B9AAB
:1015F00081B23019059080B200F063F9381981B2D8
:101600000490701B039080B20B9A00F05AF9381BBB
:1016100081B2029003980B9A80B200F052F97819C7
:1016200081B2019005980B9A80B200F04AF90298B5
:101630000B9A81B27019009080B200F042F90498C0
:101640000B9A81B2009880B200F03BF901980B9A96
:1016500081B2069880B200F034F96D1C284621460C
:101660006843614341180A984043814200DD641E8B
:10167000A542B2DD0CB0F0BD70B5FFF761F80F49BF
:10168000FEF744FF0521FFF75FF80D49FEF73EFF27
:1016900004462046FEF7EAFF05462846FFF748F8CD
:1016A000214602F057FB074902F0FCFAFFF704F865
:1016B00029034018022100F029FC70BD00002041E0
:1016C0000000C04200803B4542688A434260704748
:1016D00042680A434260704710B5034800F006F8BC
:1016E00000F013F810BD00000010014010B5426872
:1016F00094B2002CFBD001E0416889B20029FBD1F3
:10170000142002F095F8204610BD02281FD00328AF
:101710001FD004281FD006281FD007281FD0082854
:101720001FD00A281FD00B281FD00C281FD00F282D
:101730001FD00D281FD010281FD00E281FD0092819
:101740001FD005281FD0012800D150207047092044
:101750007047082070470720704706207047052013
:101760007047042070470320704702207047012013
:101770007047002070470A207047282070473220A9
:1017800070473C20704746207047F0B504460D4630
:1017900016461F462A2000F06FFB200A00F078FB57
:1017A000E0B200F075FB300A00F072FBF0B200F01E
:1017B0006FFB2B2000F060FB280A00F069FBE8B209
:1017C00000F066FB380A00F063FBF8B200F060FB43
:1017D0002C2000F051FBF0BDF0B507460E4E002165
:1017E0007088401E83B23088401E82B20846FFF7E0
:1017F000CCFF00250BE0002404E0384600F030FB6D
:10180000641CA4B27088A042F7D86D1CADB23088B9
:10181000A842F0D8F0BD00002C000020F0B587B041
:1018200000250026171A5A1A049201900091681E8A
:10183000002F02DD0121039103E0002F07D0039068
:101840007F420499002905DD0120029009E0002172
:101850000391F6E70499002908D0029004984042C9
:1018600004900498874204DD3C4603E00020029087
:10187000F7E7049C00200590601C06901BE0009890
:101880000C9A81B2019880B200F01BF8ED1904980F
:101890003618A54204DD2D1B0399019840180190CC
:1018A000A64204DD361B0299009840180090059866
:1018B000401C80B20590069905988842DFDB07B08E
:1018C000F0BD10B514460B460246FFF75EFF2046FA
:1018D00000F0C6FA10BDFFB581B00A9C06460F465F
:1018E00015463B462A46394630460094FFF796FF98
:1018F0000094324639463046049BFFF78FFF049B25
:1019000000942A4619463046FFF788FF00942A467D
:1019100039462846049BFFF781FF05B0F0BDFFB5AF
:101920000D4616461F46781E83B2701E82B22946A7
:101930000098FFF72AFF0AE0009C04E0099800F0F5
:101940008FFA641CA4B2B442F8D36D1CADB2BD4290
:10195000F2D3FFBD70B59C4CFF20A0610020206138
:10196000C82001F065FF01252561322001F060FFEC
:10197000602000F0BFFDD32000F07EFA00F028F9CF
:10198000924B988000F024F9988000F021F9000231
:10199000988000F01DF9998808439880CF2000F0C6
:1019A0006BFA002000F074FAC12000F071FA3020C8
:1019B00000F06EFAED2000F05FFA642000F068FAA3
:1019C000032000F065FA122000F062FA812000F096
:1019D0005FFAE82000F050FA852000F059FA102054
:1019E00000F056FA7A2000F053FACB2000F044FAC7
:1019F000392000F04DFA2C2000F04AFA002000F0C7
:101A000047FA342000F044FA022000F041FAF720AF
:101A100000F032FA202000F03BFAEA2000F02CFA25
:101A2000002000F035FA002000F032FAC02000F06B
:101A300023FA1B2000F02CFAC12000F01DFA01202F
:101A400000F026FAC52000F017FA302000F020FA46
:101A5000302000F01DFAC72000F00EFAB72000F089
:101A600017FA362000F008FA682000F011FA3A2040
:101A700000F002FA552000F00BFAB12000F0FCF95A
:101A8000002000F005FA1A2000F002FAB62000F05B
:101A9000F3F90A2000F0FCF9A22000F0F9F9F22095
:101AA00000F0EAF9002000F0F3F9262000F0E4F954
:101AB000012000F0EDF9E02000F0DEF90F2000F049
:101AC000E7F92A2000F0E4F9282000F0E1F90820E5
:101AD00000F0DEF90E2000F0DBF9082000F0D8F964
:101AE000542000F0D5F9A92000F0D2F9432000F0ED
:101AF000CFF90A2000F0CCF90F2000F0C9F900203E
:101B000000F0C6F9002000F0C3F9002000F0C0F991
:101B1000002000F0BDF9E12000F0AEF9002000F057
:101B2000B7F9152000F0B4F9172000F0B1F907203B
:101B300000F0AEF9112000F0ABF9062000F0A8F992
:101B40002B2000F0A5F9562000F0A2F93C2000F06F
:101B50009FF9052000F09CF9102000F099F90F2062
:101B600000F096F93F2000F093F93F2000F090F943
:101B70000F2000F08DF92B2000F07EF9002000F0FE
:101B800087F9002000F084F9012000F081F93F205E
:101B900000F07EF92A2000F06FF9002000F078F9BB
:101BA000002000F075F9002000F072F9EF2000F03D
:101BB0006FF9112000F060F9782001F039FE29203A
:101BC00000F05AF9656170BD00C000402C00002093
:101BD000054901224A6000200860C860886980B217
:101BE000CA600A607047000000C00040FFB585B0C1
:101BF00007460020039001970F984008049004982E
:101C0000C108400701D0012000E0002008180F990A
:101C100048430290203AD0B207900F990698401896
:101C2000401E83B2049806993818401E82B2384686
:101C3000FFF7ABFD002559E00F980C2827D00F982F
:101C400010282BD00F9818282ED00F98202850D16C
:101C500007982A4980014018465D00241098002802
:101C600029D00120A040304204D03846089A069975
:101C7000FFF727FE7F1CBFB20198391A04988142F2
:101C80002ED1019F0698401C80B206902CE0079848
:101C90000C2148431A494018465DDEE70798194968
:101CA00000014018465DD8E707983021484316499F
:101CB0004018465DD1E70120A040304203D008988B
:101CC00000F0CEF802E00E9800F0CAF80398401C2D
:101CD000C0B2039004990398FEF73EFB00290AD096
:101CE000641CE4B2082CB9D36D1CADB202988542D5
:101CF000A2D309B0F0BD00200390F5E79862000080
:101D000064460000D84A0000C8500000FFB585B006
:101D1000109E10461D467708214901F0C3FFFEF7CB
:101D2000CBFC80B20390002435E0281B401EC1B2DA
:101D30000A2001F0F5FE01460398FEF70DFB0A218B
:101D4000FEF70AFB0491681E844211D100210F9A0C
:101D500000920291059978434018019680B22E2294
:101D60000E9B0699FFF742FF641CE4B26D1CEDB2B6
:101D70000020029004980F9930300091C2B22046A2
:101D8000059978434018019680B20E9B0699FFF79B
:101D90002DFF641CE4B2AC42C7D309B0F0BD000013
:101DA00000002041FFB585B0109E1D460027700839
:101DB0000490002426E0281B401EC1B20A2001F036
:101DC000AFFE01460798FEF7C7FA0A21FEF7C4FAEC
:101DD000002F05D1681E844202DA002916D001279F
:101DE00000200F9A303100920290CAB204980599EF
:101DF00060434018019680B20E9B0699FFF7F6FEED
:101E0000641CE4B2AC42D6D309B0F0BD00200F99F7
:101E1000029000910498059960434018019680B2A1
:101E200020220E9B0699FFF7E1FEE9E7FFB583B09C
:101E30000D9E0546144677080CE00C990E98019605
:101E4000009102902846069B0499FFF7CFFE78196F
:101E500085B2641C2278002AEFD107B0F0BD0000E3
:101E6000044901224A6000230B6088618B608A600C
:101E70000A60704700C00040044900224A600A60BE
:101E800088618A60012088600860704700C0004057
:101E9000044901224A6000230B6088618B608A60DC
:101EA0000A60704700C0004010B5144841684908F6
:101EB0004900416001690122114301614268022128
:101EC0008A43426002690A430261426804218A43EC
:101ED000426002690A4302610521094800F016F8D0
:101EE0000621084800F012F80021074800F00EF81B
:101EF0007D200321400100F009F810BD00000140E1
:101F0000B88B02000100020042430000F8B507460A
:101F10000D46274E706840084000706070680221CE
:101F20008843706000247068022188437060380321
:101F300004D5706804210843706003E070680421D0
:101F400088437060012001F081FC70680221084321
:101F50007060012001F07AFC7F00641CE4B2142C54
:101F6000E1D3002402277068B8437060280704D5C5
:101F7000706804210843706003E07068042188439E
:101F80007060012001F062FC7068384370600120CD
:101F900001F05CFC6806050E641CE4B2042CE2D37C
:101FA0007068B84370607068012108437060F8BDC4
:101FB0000000014070B5002528460021B03000F037
:101FC000D0F90021084600F0CCF90021102000F0E3
:101FD000C8F900240121002000F0C3F9641CE4B218
:101FE000802CF7D36D1CEDB2082DE5D370BD000039
:101FF00010B5094C20212046FFF76AFB40212046FE
:10200000FFF766FB40212046FFF75EFB20212046BC
:10201000FFF75AFB10BD00000000014010B5074C4F
:1020200020212046FFF754FB40212046FFF74CFBC0
:1020300040212046FFF74CFB10BD0000000001408E
:1020400010B5054C20212046FFF742FB20212046F9
:10205000FFF73AFB10BD00000000014010B5424CF4
:10206000012220212046FFF725FA012240212046A7
:10207000FFF720FA20212046FFF72AFB40212046C7
:10208000FFF726FB1920400101F0D2FB0021AE2012
:1020900000F067F90021084600F063F900211020E4
:1020A00000F05FF90021402000F05BF90021B02032
:1020B00000F057F90021812000F053F90021FF20A2
:1020C00000F04FF90021A12000F04BF90021A620DB
:1020D00000F047F90021A82000F043F900213F203B
:1020E00000F03FF90021C82000F03BF90021D32087
:1020F00000F037F90021084600F033F90021D5201F
:1021000000F02FF90021802000F02BF90021D820C9
:1021100000F027F90021052000F023F90021D92043
:1021200000F01FF90021F12000F01BF90021DA2056
:1021300000F017F90021122000F013F90021DB2034
:1021400000F00FF90021302000F00BF900218D2064
:1021500000F007F90021142000F003F90021AF205E
:1021600000F0FFF810BD00000000014038B5044643
:10217000022118230FA2084600F0D9F80A212046B0
:10218000FEF7F4F80D4602461824032302213C20F2
:10219000009400F093F818232E2202215A2000F018
:1021A00047F82A46012302215F20009400F086F8B8
:1021B00038BD00004D53493030313A0038B504463F
:1021C000182310A20421012000F0B1F80A212046B2
:1021D000FEF7CCF80D4602461824032304213C20C8
:1021E000009400F06BF818232E2204215A2000F0EE
:1021F0001FF82A46012304215F20009400F05EF8B6
:1022000038BD0000514E383032373A0010B5044620
:1022100008460021B03000F0A4F820091030002159
:1022200000F09FF82007000F002100F09AF810BD81
:10223000FFB581B00F460024203AD5B201987F281F
:1022400003D900200190BF1CFFB2102B11D03946DA
:102250000198FFF7DBFF0620454316482D18285D3F
:10226000012100F07EF8641CE4B2062CF7D305B01F
:10227000F0BD39460198FFF7C9FF0F4E2D0128190F
:10228000305C012100F06DF8641CE4B2082CF6D338
:102290007F1CF9B20198FFF7B9FF002428198019B3
:1022A000007A012100F05DF8641CE4B2082CF5D33B
:1022B000DDE700004C3E000074400000FFB581B037
:1022C0001D46002700240A98460821E0281B401ECE
:1022D000C1B20A2001F080FC01460398FEF73CF8E9
:1022E0000A21FEF739F8002F05D1681E844202DA70
:1022F000002911D001273031CAB23046019960431C
:102300004018C0B20A9B0299FFF792FF641CE4B226
:10231000AC42DBD305B0F0BD3046019960434018B4
:10232000C0B220220A9B0299FFF782FFEEE7FFB5B9
:1023300081B004460E46174600250DE03146204682
:10234000049BFFF775FF0834E4B2782C02D900240F
:10235000B61CF6B26D1CEDB27A5D002AEED105B066
:10236000F0BD10B5002903D0C0B200F041F810BD97
:10237000C0B200F027F810BD70B50446104E202101
:102380003046FFF7A1F90025E009C001802812D0EE
:1023900040213046FFF798F96006040E20213046B0
:1023A000FFF796F920213046FFF78EF96D1CEDB24C
:1023B000082DE9D370BD40213046FFF789F9EBE7DE
:1023C0000000014010B50446FFF712FE7820FFF729
:1023D000D3FFFFF735FE0020FFF7CEFFFFF730FEFB
:1023E0002046FFF7C9FFFFF72BFEFFF717FE10BDD2
:1023F00010B50446FFF7FCFD7820FFF7BDFFFFF79F
:102400001FFE4020FFF7B8FFFFF71AFE2046FFF738
:10241000B3FFFFF715FEFFF701FE10BD02490020D4
:102420000860024908607047240000200010014045
:102430000F4901280CD000280DD002280ED0032807
:102440000FD0042810D0052801D121204860704702
:1024500003204860704700204860704705204860AE
:10246000704709204860704711204860704700009D
:102470000020014000B5FFF7D1FF01210E2001F03F
:1024800077FB02210A2001F073FB0321002001F0F9
:102490006FFB0421002001F06BFB00BD10B5182379
:1024A0000DA206210320FFF742FF01210C2001F0BD
:1024B0005FFB02210A2001F05BFB03210E2001F0EB
:1024C00057FB0421052001F053FB182306A2062127
:1024D0000320FFF72CFF10BD2020202020202020EB
:1024E00020202020202000005365617263682E2E7A
:1024F0002E0000008006830FFF2141310448F022A6
:10250000002B02D0018042807047028041807047DA
:102510002C000020FEB5C04D2846FFF75DF9FF22D4
:102520000021F023413208460095FFF7F8F9BB4837
:10253000FF272A37142100907D233A460846FFF7EB
:10254000EEF9002414217D233A4608460094FFF753
:10255000C2F92C232822194614200094FFF75EF9B3
:10256000282236232C2110460094FFF757F93623F2
:102570003822194628200094FFF750F938222C23DE
:10258000362110460094FFF749F92C236B22194697
:1025900038200094FFF742F96B2214232C211046B7
:1025A0000094FFF73BF9702336221946142000945B
:1025B000FFF734F936226223702110460094FFF7AA
:1025C0002DF962232922194636200094FFF726F9B7
:1025D00029224923622110460094FFF71FF949235D
:1025E0004322194629200094FFF718F943227D233E
:1025F000492110460094FFF711F958223C237D2110
:1026000010460094FFF70AF93C236B221946582024
:102610000094FFF703F96B227D233C2110460094C0
:10262000FFF7FCF87E222623142110460094FFF7C2
:10263000F5F826239E2219467E200094FFF7EEF837
:102640009E221423262110460094FFF7E7F830233A
:102650009E2219467E200094FFF7E0F89E22542324
:10266000302110460094FFF7D9F854237E221946F2
:102670009E200094FFF7D2F87E223023542110468A
:102680000094FFF7CBF87E2262237D211046009450
:10269000FFF7C4F862239E2219467E200094FFF7BC
:1026A000BDF89E227D23622110460094FFF7B6F804
:1026B000C2226223142110460094FFF7AFF8622370
:1026C000DA221946C2200094FFF7A8F8DA2226235E
:1026D000622110460094FFF7A1F82623EF22194645
:1026E000DA200094FFF79AF8EF222B2326211046D8
:1026F0000094FFF793F82B23FC221946EF20009457
:10270000FFF78CF8FC2232232B2110460094FFF7B0
:1027100085F8FF2632230B3632461946FC200094FA
:10272000FFF77CF82B233246322130460094FFF726
:1027300075F82B233246194630460094FFF76EF8A1
:102740002B233A46194630460094FFF767F8C22219
:102750006F237D2110460094FFF760F86F23DA2283
:102760001946C2200094FFF759F8DA227D236F2121
:1027700010460094FFF752F8EF226F237D21104698
:102780000094FFF74BF8FF266F23013632461946B7
:10279000EF200094FFF742F8622332466F21304663
:1027A0000094FFF73BF86223EF221946304600946D
:1027B000FFF734F8EF224623622110460094FFF71A
:1027C0002DF8FF2646230A3632461946EF2000949C
:1027D000FFF724F873233246462130460094FFF772
:1027E0001DF873233A46194630460094FFF716F851
:1027F000182600230AA2962114200196009502941F
:10280000FFF714FB002307A2C821142001960095AE
:102810000294FFF70BFBFEBDFFFF000051A6000076
:10282000583A0000593A000000B501210C2001F08F
:102830009FF902210C2001F09BF903210F2001F0E8
:1028400097F904210F2001F093F900BDFEB5884CE3
:102850002046FEF7C1FF8648FF221F380090322332
:102860002D320A211420FFF75AF801201825029072
:10287000002380A21421019500945020FFF7D6FA7E
:102880000026804F0096029501943888042382B276
:1028900032210A20FFF786FA009602950194B88843
:1028A000042382B232213C20FFF77CFA0096029585
:1028B00001943889042382B232216E20FFF772FA24
:1028C000009602950194B889042382B23221A02097
:1028D000FFF768FA009602950194388A042382B2C1
:1028E0003221D220FFF75EFA009602950194B88A51
:1028F000042382B2FF2032210530FFF753FA0096FD
:1029000002950194388B042382B264210A20FFF7D8
:1029100049FA009602950194B88B042382B264218F
:102920003C20FFF73FFA009602950194388C04236F
:1029300082B264216E20FFF735FA00960295019469
:10294000B88C042382B26421A020FFF72BFA0096F2
:1029500002950194388D042382B26421D220FFF7BE
:1029600021FA009602950194B88D042382B2FF20CB
:1029700064210530FFF716FA009602950194388E0F
:10298000042382B296210A20FFF70CFA00960295E2
:102990000194B88E042382B296213C20FFF702FAFC
:1029A000009602950194388F042382B296216E20FE
:1029B000FFF7F8F9009602950194B88F042382B2CC
:1029C0009621A020FFF7EEF9009602950194386C4D
:1029D000042382B29621D220FFF7E4F900960295F3
:1029E0000194786C042382B2FF2096210530FFF712
:1029F000D9F9009602950194B86C042382B2C821DB
:102A00000A20FFF7CFF9009602950194F86C042391
:102A100082B2C8213C20FFF7C5F9009602950194C7
:102A2000386D042382B2C8216E20FFF7BBF90096EF
:102A300002950194786D042382B2C821A020FFF78B
:102A4000B1F9009602950194B86D042382B2C821B1
:102A5000D220FFF7A7F9009602950194F86D0423A0
:102A600082B2FF20C8210530FFF79CF9FEBD0000AF
:102A7000FFFF000053617665642053746174696FD1
:102A80006E7300003800002002480168491C016094
:102A90007047000034000020024901480860704778
:102AA00000366E012000002010B5FFF7B7FC0121B1
:102AB000084601F05DF802210C2001F059F80321CD
:102AC000002001F055F80421002001F051F8FF200A
:102AD000F53000F0ADFE05480068FEF72DFD182327
:102AE00003A206210320FFF722FC10BD28000020CE
:102AF00074616B6500000000FEB500250124FFF73E
:102B00008DFCFFF791FEFEF7E7FD0646FFF786FC1A
:102B1000394F092E06D835462146304601F028F8AF
:102B2000022401E00A2E11D0FEF7D6FD0646092E3A
:102B30000ED82146284601F01BF80A204543AD195E
:102B4000611E304601F014F8641C03E03868FEBDD5
:102B50000A2E19D0FEF7C0FD0646092E16D80A2106
:102B60002846FDF7F9FB0191214601F001F8611EAD
:102B7000019800F0FDFF0A204543AD19A11E304623
:102B800000F0F6FF641C03E03868FEBD0A2E23D077
:102B9000FEF7A2FD0646092E20D864212846FDF73F
:102BA000DBFB214600F0E4FF0A212846FDF7D4FBB9
:102BB00000910A21FDF7D0FB0846611E00F0D8FF06
:102BC000A11E009800F0D4FF0A204543AD19E11E74
:102BD000304600F0CDFF03E03868FEBD0A2E05D078
:102BE000FEF77AFD092803D83868FEBD2846FEBDE9
:102BF0000A28FCD12846FEBD28000020F0B585B08B
:102C0000584F3846FEF760FC574A0F21116038686C
:102C1000C1B2012914D000292ED0FF20FEF78CFC70
:102C2000C82000F005FE51480068FEF785FC0A2028
:102C300000F0FEFD4C490F208039086005B0F0BD62
:102C400001208002FEF778FC002503AE48480068AA
:102C50006A46010E1173010C5173010A9173D0730E
:102C60000024315D3846FEF732FC641C042CF8DB8E
:102C70006D1C0A2DEADBD3E73846FEF725FC012060
:102C8000C002FEF759FCFFF745FCFDF771FA0A2177
:102C9000FDF76CFB0846FDF74BFD364D2946FDF769
:102CA00035FC0446FDF764FA6421FDF75FFB4B2019
:102CB00000010818FDF73CFD214600F0ADFF074676
:102CC000FDF756FA0A21FDF751FB0846FDF730FDE6
:102CD0002946FDF71BFC0446FDF74AFA3221FDF7B1
:102CE00045FB0846C830FDF723FD214600F094FF60
:102CF000054600201824204E009005233A469621D0
:102D0000019602946420FFF701F80020009004234C
:102D10002A46C821019602946420FEF7F7FF174C5B
:102D2000174BA08A022281B2208A80B2FEF74EFCA5
:102D3000144E38463146FDF7E9FBFDF797FC143099
:102D40000746206131462846FDF7E0FBFDF78EFC83
:102D50001430606181B21F23B8B2DB020222FEF799
:102D600035FC5DE70040004080E100E028000020E5
:102D70000020014000002041FFFF00000000002073
:102D800051A600000000A040F8B5FA4C2046FEF71E
:102D90009BFBF9490F2008602068C0B2F74C35282A
:102DA00040D0342859D00027F54E36287AD037281D
:102DB0006FD001286ED002286DD003286CD0042873
:102DC0006BD005286AD0062869D0072868D0082863
:102DD00067D009287DD00A287CD00B287BD00C280E
:102DE0007AD00D2879D00E2878D00F2877D01028E7
:102DF00076D0112875D0122874D0132873D01428D7
:102E000072D0152871D0162870D017286FD01828C6
:102E10006ED019286DD01A286CD038286BD039287C
:102E20006AD005E22068401C2060FEF785FB206820
:102E3000FEF722FC2068FFF799F92068FEF70EFBE9
:102E40000A2000F0F5FC2068FEF708FB0A2000F0DD
:102E5000EFFC2068FEF702FBE3E72068401E2060DD
:102E6000FEF76AFB2068FEF707FC2068FFF77EF993
:102E70002068FEF7F3FA0A2000F0DAFC2068FEF77B
:102E8000EDFA0A2000F0D4FC2068FEF7E7FAC8E764
:102E900008E064E07EE09BE0B8E0D5E0F2E00FE11E
:102EA0002CE149E17088012802D0002831D0B8E730
:102EB0000020FFF7BDFA7780FFF7DCFA1823B1A2F4
:102EC00006212620FFF733FA2068FEF7C7FA0A200A
:102ED00013E071E18EE1ACE1CAE1E8E106E224E24F
:102EE00042E260E27EE29CE2BAE2D8E2F6E214E379
:102EF00032E350E372E38FE3E8E300F099FC2068EB
:102F0000FEF7ACFA0A2000F093FC2068FEF7A6FA60
:102F1000EBE33078FFF78CFA012070802068FEF731
:102F20000BFBFFF747F82068FFF720F99748FFF7FA
:102F300045F9182396A200212D20FFF7F8F9206803
:102F4000FEF78CFA0A2000F073FC2068FEF786FA80
:102F50000A2000F06DFC2068FEF780FAC5E3FFF759
:102F6000A3FD2068FEF788FB2068FEF7E5FA2068DD
:102F7000FFF7FCF82068FEF771FA0A2000F058FC11
:102F80002068FEF76BFA0A2000F052FC2068FEF77A
:102F900065FAAAE3FFF788FD7C4868382060FEF7F1
:102FA0006BFB2068FEF7C8FA18237BA206210320DA
:102FB000FFF7BDF9FF20F53000F03AFC2068FFF77D
:102FC000D5F8182378A206210320FFF7B0F98CE387
:102FD000FFF76AFD6D4862382060FEF74DFB206800
:102FE000FEF7AAFA18236CA206210320FFF79FF927
:102FF000FF20F53000F01CFC18236BA206210320F3
:10300000FFF795F92068FFF7B1F86EE3FFF74CFD85
:103010005E4857382060FEF72FFB2068FEF78CFAD9
:1030200018235DA206210320FFF781F9FF20F53068
:1030300000F0FEFB18235CA206210320FFF777F9BE
:103040002068FFF793F850E3FFF72EFD4F484F3805
:103050002060FEF711FB2068FEF76EFA18234EA2DF
:1030600006210320FFF763F9FF20F53000F0E0FBB5
:1030700018234DA206210320FFF759F92068FFF716
:1030800075F832E3FFF710FD40484B382060FEF73B
:10309000F3FA2068FEF750FA18233FA20621032016
:1030A000FFF745F9FF20F53000F0C2FB18233EA2E0
:1030B00006210320FFF73BF92068FFF757F814E3D8
:1030C000FFF7F2FC314844382060FEF7D5FA20685B
:1030D000FEF732FA182330A206210320FFF727F962
:1030E000FF20F53000F0A4FB18232FA206210320B7
:1030F000FFF71DF92068FFF739F8F6E2FFF7D4FC77
:1031000022483C382060FEF7B7FA2068FEF714FA30
:10311000182321A206210320FFF709F9FF20F5302B
:1031200000F086FB182320A206210320FFF7FFF8FA
:103130002068FFF71BF8D8E2FFF7B6FCE920800013
:103140002060FEF799FA2068FEF7F6F9182312A21C
:1031500006210320FFF7EBF8FF20F53000F068FBB5
:10316000182311A206210320FFF7E1F82068FEF7DB
:10317000FDFFBAE20050004080E100E0280000209E
:103180000000002053544F5021210000D9030000BB
:103190004D4554454F00000074616B6520737563A5
:1031A0006365737300000000202020202020202071
:1031B0002020202020200000FFF776FCFE48206021
:1031C000FEF75AFA2068FEF7B7F91823FB4A0621E2
:1031D0000320FFF7ACF8FF20F53000F029FBF74A99
:1031E0001823103206210320FFF7A1F82068FEF70C
:1031F000BDFF7AE2FFF758FC3B2000012060FEF79C
:103200003BFA2068FEF798F91823EC4A06210320C0
:10321000FFF78DF8FF20F53000F00AFBE74A18238E
:10322000103206210320FFF782F82068FEF79EFF88
:103230005BE2FFF739FCE04811302060FEF71CFA32
:103240002068FEF779F91823DC4A06210320FFF7EE
:103250006EF8FF20F53000F0EBFAD84A1823103250
:1032600006210320FFF763F82068FEF77FFF3CE2AA
:10327000FFF71AFCD04819302060FEF7FDF92068EE
:10328000FEF75AF91823CD4A06210320FFF74FF81D
:10329000FF20F53000F0CCFAC84A1823103206217E
:1032A0000320FFF744F82068FEF760FF1DE2FFF7F8
:1032B000FBFB7920C0002060FEF7DEF92068FEF7F6
:1032C0003BF91823BD4A06210320FFF730F8FF2001
:1032D000F53000F0ADFAB94A182310320621032068
:1032E000FFF725F82068FEF741FFFEE1FFF7DCFB62
:1032F000B14824302060FEF7BFF92068FEF71CF9C2
:103300001823AE4A06210320FFF711F8FF20F530FD
:1033100000F08EFAA94A1823103206210320FFF785
:1033200006F82068FEF722FFDFE1FFF7BDFB3D2036
:1033300000012060FEF7A0F92068FEF7FDF81823D1
:103340009E4A06210320FEF7F2FFFF20F53000F031
:103350006FFA9A4A1823103206210320FEF7E7FF7E
:103360002068FEF703FFC0E1FFF79EFBF520800019
:103370002060FEF781F92068FEF7DEF818238F4AF7
:1033800006210320FEF7D3FFFF20F53000F050FAAE
:103390008A4A1823103206210320FEF7C8FF20684E
:1033A000FEF7E4FEA1E1FFF77FFB7D20C000206077
:1033B000FEF762F92068FEF7BFF818237F4A06215E
:1033C0000320FEF7B4FFFF20F53000F031FA7B4A0E
:1033D0001823103206210320FEF7A9FF2068FEF70C
:1033E000C5FE82E1FFF760FB734841302060FEF7C5
:1033F00043F92068FEF7A0F81823704A062103203D
:10340000FEF795FFFF20F53000F012FA6B4A182303
:10341000103206210320FEF78AFF2068FEF7A6FE81
:1034200063E1FFF741FB64484D302060FEF724F96B
:103430002068FEF781F81823604A06210320FEF772
:1034400076FFFF20F53000F0F3F95C4A18231032C4
:1034500006210320FEF76BFF2068FEF787FE44E19C
:10346000FFF722FB544853302060FEF705F920682F
:10347000FEF762F81823514A06210320FEF757FF92
:10348000FF20F53000F0D4F94C4A18231032062101
:103490000320FEF74CFF2068FEF768FE25E1FFF7EA
:1034A00003FB45485B302060FEF7E6F82068FEF736
:1034B00043F81823414A06210320FEF738FFFF2076
:1034C000F53000F0B5F93D4A1823103206210320EB
:1034D000FEF72DFF2068FEF749FE06E1FFF7E4FA4C
:1034E000354861302060FEF7C7F82068FEF724F801
:1034F0001823324A06210320FEF719FFFF20F5307A
:1035000000F096F92D4A1823103206210320FEF709
:103510000EFF2068FEF72AFEE7E0FFF7C5FA26480F
:103520006B302060FEF7A8F82068FEF705F8182336
:10353000224A06210320FEF7FAFEFF20F53000F0B4
:1035400077F91E4A1823103206210320FEF7EFFEFA
:103550002068FEF70BFEC8E0FFF7A6FA16487930A0
:103560002060FEF789F82068FDF7E6FF1823134A6C
:1035700006210320FEF7DBFEFF20F53000F058F9AE
:103580000E4A1823103206210320FEF7D0FE2068D1
:10359000FEF7ECFDA9E0FFF787FA074881302060CD
:1035A000FEF76AF82068FDF7C7FF1823034A0621D3
:1035B0000320FEF7BCFE03E0AA03000098310000E0
:1035C000FF20F53000F034F918234B4A0621032080
:1035D000FEF7ADFE2068FEF7C9FD86E0FFF764FA4E
:1035E00046482060FEF748F82068FDF7A5FF424AEC
:1035F0001823103A06210320FEF799FEFF20F5302C
:1036000000F016F918233C4A06210320FEF78FFE2E
:103610002068FEF7ABFD68E0FEF700FF0020384FA2
:1036200000218200B950401CC0B2C828F8D342E043
:10363000372134480901816000214160FEF7EEFE28
:103640002068FEF719F82068FDF776FF2068FEF77E
:103650008DFD2068FDF702FF18232BA20621032011
:10366000FEF765FEFFF7F2F8FF20F53000F0E0F816
:103670001823214A06210320FEF759FE35E0FDF705
:10368000FBFF0026244800684519012000F0D0F80F
:10369000761CF6B2052EF5D305212846FCF75CFE14
:1036A00005461849C868854205D948688A68830074
:1036B000FA50401C4860FEF7F1FE12498868401C31
:1036C00088608722D2009042D9D9B1E72068FDF7FF
:1036D000C5FE0A2000F0ACF82068FDF7BFFE0A2006
:1036E00000F0A6F82068FDF7B9FE0A2000F0A0F867
:1036F0000A490F200860F8BDA83100003704000017
:103700003800002000000020536561726368207358
:1037100075636365737300000020014000E100E001
:1037200010B5FEF77BFE01210A2000F021FA0221EC
:103730000A2000F01DFA03210A2000F019FA0421E2
:103740000A2000F015FA0A480068FDF7F5FE182374
:1037500008A206210320FEF7EAFDFF20F53000F065
:1037600067F8182307A206210320FEF7E0FD10BD2D
:1037700028000020766F6C756D652061646A757332
:103780007400000020202020202020202020202045
:103790002020000010B5FEF741FE09480121007805
:1037A00000F0E6F90221002000F0E2F903210020F8
:1037B00000F0DEF904210A2000F0DAF910BD000063
:1037C00000000020F8B5040C8BB2264682B25E439E
:1037D000104658430D0C370C36040021801916464C
:1037E00079416E43370C36048019264679416E4381
:1037F0008919F8BD4900CA020243100000D0042014
:103800004A0D01D001221043044A490D914201D1D1
:1038100002210843012800D105207047FF0700005E
:1038200030380A2801D2012070470020704700007C
:10383000054B05E019460A46491E89B2002AFAD10D
:10384000401E411CF6D17047C51A000005E0042156
:103850000A46491E89B2002AFAD1401E411CF6D1FF
:103860000248016001683029FCD070473400002014
:103870001FB50024924800689249801E00268842A5
:103880000BD891494861914A0723D0690002000A88
:103890004D042843D0618E610B61FEF705FB0125C5
:1038A00000268B4F009601952B462A4639468948BB
:1038B00002960395FDF710FE0123009601951A4626
:1038C0003946854802960395FDF706FEFEF7C6FBCE
:1038D000FEF740F8FEF76EFB1920FDF725FE7F4D41
:1038E0002868FDF7C9FE2868FDF726FE18237CA28C
:1038F00000212D20FEF71BFD2868FEF737FC7A48D3
:10390000FEF75CFC2868FEF731FCFEF703FE774902
:103910000F2008602868FDF7A1FD754FFDF7DCFE5C
:103920000A2840D0FDF7D8FE282848D0FDF7D4FE5D
:10393000322850D0FDF7D0FE3C2858D0FDF7CCFE01
:10394000462872D0FDF7C8FE5028E7D1FFF7ACF843
:10395000FEF764FDA0003858FDF7EEFDFDF7BCFE54
:10396000282871D0FDF7B8FE32286ED0FDF7B4FEDE
:103970005028EFD1A600B859FDF77EFEB85928604F
:10398000FEF7F4FB18235BA206210320FEF7CFFC11
:10399000FF20F530FFF74CFF18235AA20621032021
:1039A000FEF7C5FCBAE7FFF7A7F82860FDF7C4FDEE
:1039B0002868FDF761FE2868FEF7D8FBAEE72868A7
:1039C000401E2860FDF7B8FD2868FDF755FE286801
:1039D000FEF7CCFBA2E72868401C2860FDF7ACFD91
:1039E0002868FDF749FE2868FEF7C0FB96E7494EB8
:1039F000708801281AD0002890D13078FEF718FD81
:103A0000012070802868FDF797FDFEF7D3FA28683B
:103A1000FEF7ACFB3448DC30FEF7D0FB182330A2B5
:103A200000212D20FEF783FC78E70FE00020FEF751
:103A3000FFFC00207080FEF71DFD182336A2062132
:103A40002620FEF774FC69E735E036E0FEF7E6FC79
:103A5000FFF766FEFFF79EFE2E4EFDF73DFE1E2889
:103A6000FBD0FDF739FE282813D0FDF735FE3228AC
:103A700018D0FDF731FE4628EFD1FFF751FE286838
:103A8000FDF75AFD2868FDF7F7FD2868FEF76EFB85
:103A900044E73078401EC0B23070FEF7C9FCFFF733
:103AA00079FEDAE73078401CC0B23070FEF7C0FC17
:103AB000FFF770FED1E7641E4CE7641C4AE7000084
:103AC00020000020FFFFFF0000E000E004ED00E028
:103AD000C4090000005000400040004028000020C1
:103AE0004D4554454F000000FD02000000E100E09C
:103AF0003800002074616B652073756363657373B0
:103B00000000000020202020202020202020202035
:103B1000202000000000002053544F5021210000BD
:103B20000346012000E058430A46491EC9B2002A54
:103B3000F9D170470C4A0D4B1168012809D00228B1
:103B40000CD0032804D10120C00401431160196086
:103B50007047102001431160196070470120400236
:103B600001431160196070472400002000100140DB
:103B700010B5134B134C1A6801290CD0022910D030
:103B8000032915D0042905D10F49C0030A40024377
:103B90001A60226010BD0D490A4002431A6022607B
:103BA00010BD0B4940010A4002431A60226010BD5B
:103BB000084980020A4002431A60226010BD0000DA
:103BC0002400002000100140FF7F0800F0FF0F00DC
:103BD0001FFE0F00FFC30F000346012000E0584303
:103BE0000A46491EC9B2002AF9D1704710B500290A
:103BF0000AD00878002807D005487844FDF7E2FB92
:103C0000002801D0002010BD0248784410BD0000FB
:103C1000523F00004A3F000070B501250400ED0747
:103C20004C4020D4441A01D2001B0919C60D4B0088
:103C3000F2B2FF2A29D01B0E2CD000020C02D31A9C
:103C40002C43DC402843051910D2280A02D3401C1B
:103C50006D0611D0761EF6058019FF2A00DA70BDB8
:103C6000C00DC00570BD694000F086F80120054315
:103C7000C541521C761CE8E764089C40C9016140BC
:103C80008900E7D10124A043E4E71B0E440200D0E1
:103C9000034870BD002AFCD1C00FC00770BD00BF33
:103CA0000000C07F70B5420064414B005C41120EC1
:103CB00039D01B0E38D0FF2A3CD0FF2B3AD040021F
:103CC0004902400A490A060045184E43000A090AFB
:103CD000D2184843ED017F3A0104731A4019190CB8
:103CE0004318990F04D001215B0849075B1A521C45
:103CF000D80904D3401CF50301D19D0607D0FF2A43
:103D000008D2D50506D0E4072043401970BD01252F
:103D1000A843F4E7002A01DCE00770BD2402FF207D
:103D20002043C00570BD1B0EFF2A03D0FF2B01D01E
:103D3000E00770BDFF2645003606B54206D84D00A7
:103D4000B54203D8D218FF2A00D0E7E7004870BD7B
:103D50000000C07F70B50125ED07684004004C40AD
:103D600002D5694000F008F8FFF75CFF70B5012547
:103D70000400ED074C4022D4441A02D26C40001BD0
:103D80000919C60D4B00F2B2FF2A4BD01B0E50D0C2
:103D900000020C02D31A2C43DC40A843051B05D5B6
:103DA000AD0019D36D08761E521E37D0F605280ACD
:103DB00001D2801970BD70416D0603D070BD69409D
:103DC000FFF730FF9C4009026140490001D0401ECE
:103DD00070BD0124A04370BD6D081DD001202B0CC7
:103DE00001D12D0410302B0E01D12D0208302B0FE4
:103DF00001D12D01001DAB0F01D1AD00801CEB0FD7
:103E000001D16D00401C6D00361A121A680AF505C2
:103E10004019012A02DB70BD002070BDC036300A97
:103E2000C00770BD1B0E440201D1FF2B00D1024818
:103E300070BD002AF0D070BD0000C07F03B40248FE
:103E40007844844603BC6047E7CAFFFF00000000D7
:103E500000000000002F0000000007000700001411
:103E60007F147F1400242A7F2A120062640813231F
:103E700000364955225000000503000000001C22B6
:103E80004100000041221C000014083E08140008F4
:103E9000083E0808000000A06000000808080808A4
:103EA000000060600000002010080402003E51493C
:103EB000453E0000427F40000042615149460021DA
:103EC00041454B31001814127F10002745454539F4
:103ED000003C4A494930000171090503003649494F
:103EE000493600064949291E000036360000000008
:103EF0005636000000081422410000141414141453
:103F000000004122140800020151090600324959FB
:103F1000513E007C1211127C007F49494936003E17
:103F200041414122007F4141221C007F49494941D2
:103F3000007F09090901003E4149497A007F0808CC
:103F4000087F0000417F4100002040413F01007F89
:103F500008142241007F40404040007F020C027F55
:103F6000007F0408107F003E4141413E007F090967
:103F70000906003E4151215E007F0919294600468D
:103F8000494949310001017F0101003F4040403F64
:103F9000001F2040201F003F4038403F00631408AE
:103FA0001463000708700807006151494543000089
:103FB0007F41410000552A552A55000041417F00AC
:103FC00000040201020400404040404000000102A1
:103FD0000400002054545478007F4844443800388A
:103FE0004444442000384444487F00385454541812
:103FF00000087E0901020018A4A4A47C007F080424
:1040000004780000447D4000004080847D00007FF3
:10401000102844000000417F4000007C0418047810
:10402000007C0804047800384444443800FC24240C
:1040300024180018242418FC007C080404080048F4
:104040005454542000043F444020003C4040207C15
:10405000001C2040201C003C4030403C0044281004
:104060002844001CA0A0A07C004464544C441414B8
:1040700014141414000000000000000000000000F0
:1040800000000000000000F8000000000000003305
:104090003000000000100C06100C060000000000AC
:1040A0000000000040C07840C0784000043F040495
:1040B0003F040400007088FC08300000001820FF56
:1040C000211E0000F008F000E018000000211C0391
:1040D0001E211E0000F00888700000001E2123240D
:1040E0001927211010160E0000000000000000002B
:1040F00000000000000000E01804020000000007BB
:104100001820400000020418E000000000402018C1
:1041100007000000404080F0804040000202010F94
:1041200001020200000000F0000000000101011F78
:1041300001010100000000000000000080B07000DC
:10414000000000000000000000000000000101016C
:1041500001010101000000000000000000303000FB
:1041600000000000000000008060180400601806D5
:104170000100000000E010080810E000000F10200F
:1041800020100F00001010F8000000000020203F59
:1041900020200000007008080888700000302824E3
:1041A0002221300000300888884830000018202084
:1041B00020110E000000C02010F8000000070424A9
:1041C000243F240000F808888808080000192120EE
:1041D00020110E0000E0108888180000000F112048
:1041E00020110E0000380808C83808000000003F01
:1041F000000000000070880808887000001C222160
:1042000021221C0000E010080810E000000031220C
:1042100022110F00000000C0C000000000000030AC
:1042200030000000000000800000000000008060FE
:10423000000000000000804020100800000102047F
:104240000810200040404040404040000404040466
:104250000404040000081020408000000020100822
:1042600004020100007048080808F0000000003057
:1042700036010000C030C828E810E00007182724E5
:1042800023140B000000C038E0000000203C230293
:104290000227382008F8888888700000203F2020F6
:1042A00020110E00C0300808080838000718202028
:1042B0002010080008F808080810E000203F20201F
:1042C00020100F0008F88888E8081000203F202000
:1042D0002320180008F88888E8081000203F2000F4
:1042E00003000000C030080808380000071820202C
:1042F000221E020008F808000008F808203F2101EB
:1043000001213F20000808F8080800000020203F95
:104310002020000000000808F8080800C080808005
:104320007F00000008F888C028180800203F2001FE
:104330002638200008F8080000000000203F202058
:104340002020300008F8F800F8F80800203F003F6F
:10435000003F200008F830C00008F808203F200087
:1043600007183F00E01008080810E0000F10202098
:1043700020100F0008F808080808F000203F21016D
:1043800001010000E01008080810E0000F182424C4
:1043900038504F0008F8888888887000203F200037
:1043A000030C3020007088080808380000382021ED
:1043B00021221C00180808F8080818000000203FF7
:1043C0002000000008F808000008F808001F20205E
:1043D00020201F000878880000C83808000007382F
:1043E0000E010000F80800F80008F800033C070080
:1043F000073C0300081868808068180820302C03E8
:10440000032C30200838C800C83808000000203FBE
:104410002000000010080808C838080020382621AD
:1044200020201800000000FE020202000000007FB1
:1044300040404000000C30C00000000000000001BF
:104440000638C00000020202FE00000000404040AA
:104450007F000000000004020202040000000000CF
:10446000000000000000000000000000808080804C
:104470008080808000020204000000000000000034
:1044800000000000000080808080000000192422CD
:1044900022223F2008F8008080000000003F112009
:1044A00020110E000000008080800000000E11200E
:1044B00020201100000000808088F800000E1120EC
:1044C00020103F200000808080800000001F2222FA
:1044D00022221300008080F0888888180020203F66
:1044E000202000000000808080808000006B949479
:1044F0009493600008F8008080800000203F210035
:1045000000203F2000809898000000000020203FFD
:1045100020200000000000809898000000C08080EB
:10452000807F000008F8000080808000203F240287
:104530002D302000000808F8000000000020203F77
:10454000202000008080808080808000203F20002C
:104550003F20003F8080008080800000203F2100BD
:1045600000203F200000808080800000001F20206D
:1045700020201F00808000808000000080FFA1209C
:1045800020110E000000008080808000000E1120AD
:1045900020A0FF80808080008080800020203F213C
:1045A00020000100000080808080800000332424EF
:1045B00024241900008080E0808000000000001F9B
:1045C000202000008080000000808000001F20204C
:1045D00020103F20808080000080808000010E300D
:1045E0000806010080800080008080800F300C036E
:1045F0000C300F0000808000808080000020312E71
:104600000E312000808080000080808080818E704C
:104610001806010000808080808080000021302CFE
:104620002221300000000000807C02020000000017
:10463000003F404000000000FF00000000000000BC
:10464000FF0000000002027C800000000040403FAC
:104650000000000000060101020204040000000046
:10466000000000000000000000000000000000004A
:1046700000000404040404000004000014140A00F0
:10468000000000000000000000000A0A1F0A0A1FC4
:104690000A0A000000040E1505060C14150E04008D
:1046A000000012150D152E2C2A1200000000040A1D
:1046B0000A3615152916000002020100000000004C
:1046C0000000000010080804040404040808100096
:1046D000020404080808080804040200000000049A
:1046E000150E0E150400000000000008083E080822
:1046F00000000000000000000000000002020100B5
:1047000000000000003F000000000000000000006A
:10471000000000000002000000201010080804043F
:104720000202010000000E1111111111110E000002
:104730000000040604040404040E000000000E112E
:1047400011080402011F000000000E11100C1010CF
:10475000110E00000000080C0C0A091F081C0000C4
:1047600000001F01010F1110110E000000000C12BB
:10477000010D1311110E000000001E1008080404A2
:104780000404000000000E11110E1111110E0000A2
:1047900000000E111119161009060000000000009B
:1047A00004000000000400000000000000040000FD
:1047B00000040400000010080402020408100000B5
:1047C000000000003F003F00000000000000020465
:1047D000081010080402000000000E111108040463
:1047E0000004000000001C22292D2D1D221C0000A9
:1047F000000004040C0A0A1E1233000000000F120D
:10480000120E1212120F000000001E110101010110
:10481000110E000000000F1212121212120F0000EF
:1048200000001F120A0E0A02121F000000001F12D1
:104830000A0E0A020207000000001C1201013911D1
:10484000120C000000003312121E1212123300006C
:1048500000001F0404040404041F000000003E08BC
:104860000808080808080907000037120A060A1293
:10487000123700000000070202020202223F00007D
:1048800000003B1B1B1B15151535000000003B12DB
:1048900016161A1A1217000000000E11111111112C
:1048A000110E000000000F12120E0202020700009B
:1048B00000000E1111111117190E180000000F122F
:1048C000120E0A121237000000001E110106081015
:1048D000110F000000001F1504040404040E000062
:1048E0000000331212121212120C000000003312D8
:1048F000120A0A0C040400000000151515150E0A12
:104900000A0A000000001B0A0A04040A0A1B00002D
:1049100000001B0A0A0A0404040E000000001F091C
:1049200008040402121F00001C040404040404040C
:1049300004041C000002020404040808081010000B
:104940000E0808080808080808080E00040A0000F5
:104950000000000000000000000000000000000057
:104960000000003F02040000000000000000000002
:1049700000000000000C121C123C000000030202A8
:10498000020E1212120E000000000000001C1202A3
:10499000120C000000181010101C1212123C000023
:1049A00000000000000C121E021C0000001824046D
:1049B000041E0404041E000000000000003C120C51
:1049C000021C221C00030202020E12121237000007
:1049D0000004040000060404040E0000000808009F
:1049E000000C08080808080700030202021A0A0659
:1049F0000A1300000007040404040404041F000058
:104A000000000000000F1515151500000000000043
:104A1000000F12121237000000000000000C1212EA
:104A2000120C000000000000000F1212120E02070C
:104A300000000000001C1212121C103800000000C0
:104A4000001B06020207000000000000001E020C0E
:104A5000101E000000000004041E0404041C0000DA
:104A600000000000001B1212123C000000000000B9
:104A7000001B0A0A04040000000000000015150EC7
:104A80000A0A000000000000001B0A040A1B0000C4
:104A900000000000003312120C08040300000000A4
:104AA000001E0804041E000018080808080C080866
:104AB000080818000808080808080808080808086E
:104AC0000604040404080404040406001609000093
:104AD00000000000000000000000000000000000D6
:104AE000000000000000000000000008080808089E
:104AF000080800001818000000486C24120000008C
:104B000000000000000000000000002424247F12A8
:104B100012127F12121200000000081C2A2A0A0C2E
:104B20001828282A2A1C0808000000222515151517
:104B30002A585454542200000000000C1212120A89
:104B400076252911916E000000060604030000007E
:104B500000000000000000000040201010080808BD
:104B60000808081010204000000204080810101067
:104B700010101008080402000000000008086B1C58
:104B80001C6B08080000000000000000080808086E
:104B90007F08080808000000000000000000000076
:104BA00000000000060604030000000000000000F2
:104BB000FE000000000000000000000000000000F7
:104BC0000000000006060000000080404020201089
:104BD00010080804040202000000001824424242A7
:104BE0004242424224180000000000080E08080853
:104BF00008080808083E00000000003C424242202D
:104C000020100804427E00000000003C42422018B0
:104C100020404042221C00000000002030282424B4
:104C200022227E20207800000000007E0202021A6C
:104C300026404042221C0000000000382402021AD4
:104C400026424242241800000000007E222210105A
:104C500008080808080800000000003C42424224FE
:104C600018244242423C0000000000182442424204
:104C700064584040241C0000000000000000181888
:104C800000000000181800000000000000000008EC
:104C90000000000000080804000000402010080484
:104CA00002040810204000000000000000007F0007
:104CB00000007F0000000000000000020408102037
:104CC00040201008040200000000003C4242464020
:104CD00020101000181800000000001C225A555522
:104CE00055552D42221C000000000008081814141D
:104CF000243C224242E700000000001F2222221E24
:104D000022424242221F00000000007C4242010178
:104D100001010142221C00000000001F2242424209
:104D200042424242221F00000000003F4212121E77
:104D300012120242423F00000000003F4212121EC7
:104D400012120202020700000000003C22220101B0
:104D500001712122221C0000000000E74242424271
:104D60007E42424242E700000000003E0808080878
:104D700008080808083E00000000007C1010101011
:104D8000101010101010110F0000007722120A0EE0
:104D90000A1212222277000000000007020202021B
:104DA00002020202427F00000000007736363636EB
:104DB0002A2A2A2A2A6B0000000000E346464A4AB3
:104DC00052525262624700000000001C22414141E1
:104DD00041414141221C00000000003F424242424A
:104DE0003E020202020700000000001C2241414175
:104DF00041414D53321C60000000003F4242423EA0
:104E00001212222242C700000000007C424202042B
:104E100018204042423E00000000007F4908080878
:104E200008080808081C0000000000E7424242424F
:104E300042424242423C0000000000E7424222243B
:104E400024141418080800000000006B494949495F
:104E50005555362222220000000000E74224241883
:104E60001818242442E700000000007722221414BE
:104E700008080808081C00000000007E212010100F
:104E800008040442423F00000078080808080808A7
:104E9000080808080808780000000202040408084E
:104EA0000810102020204040001E1010101010107C
:104EB0001010101010101E000038440000000000F8
:104EC00000000000000000000000000000000000E2
:104ED00000000000000000FF0006080000000000C5
:104EE0000000000000000000000000000000003C86
:104EF0004278444242FC0000000000030202021A11
:104F000026424242261A000000000000000000383D
:104F10004402020244380000000000604040407833
:104F20004442424264D80000000000000000003CFF
:104F3000427E0202423C0000000000F08808087E29
:104F400008080808083E0000000000000000007C7F
:104F500022221C023C42423C000000030202023AB0
:104F60004642424242E700000000000C0C00000EE6
:104F700008080808083E0000000000303000003833
:104F8000202020202020221E0000000302020272A6
:104F9000120A1612227700000000000E0808080806
:104FA00008080808083E0000000000000000007F1C
:104FB0009292929292B70000000000000000003B25
:104FC0004642424242E70000000000000000003C70
:104FD00042424242423C0000000000000000001B30
:104FE00026424242221E0207000000000000007814
:104FF00044424242447840E0000000000000007754
:105000004C040404041F0000000000000000007CA9
:1050100042023C40423E0000000000000008083E02
:1050200008080808083000000000000000000063C5
:105030004242424262DC000000000000000000E743
:10504000422424140808000000000000000000EBC7
:10505000494955552222000000000000000000765A
:1050600024181818246E000000000000000000E75B
:105070004224241418080807000000000000007EE5
:1050800022100808447E000000C0202020202010AC
:10509000202020202020C000101010101010101010
:1050A0001010101010101010000608080808081042
:1050B00008080808080806000C32C20000000000BA
:1050C00000000000000000000000000000000000E0
:1050D00000000000000000000000000000000000D0
:1050E00000000000000000000000000000000000C0
:1050F00000000000000000000000000000000000B0
:10510000E000E000E000E000E0004000400040007F
:10511000400040004000000000000000E000E0000F
:10512000E0000000000000000000000060066006D3
:1051300030039801880044000000000000000000D7
:10514000000000000000000000000000000000005F
:10515000000000000000000000000000000000004F
:1051600000000802080208020802FE07FE07080203
:10517000080204010401FE07FE0704010401040102
:1051800004010000000000000000000000004000DA
:105190004000F00158034C034C034C0058007000D1
:1051A000E000C001C00140034C034C034C03480124
:1051B000F00040004000000000000000000000007F
:1051C00000000E030A01110191009100D10051006D
:1051D000FA03AE02600450045004580448048802E4
:1051E0008403000000000000000000000000000038
:1051F000000038006400640064006400A4031C0123
:105200000C011A019200B300E3006300C300A6047E
:105210001C03000000000000000000000C001C0047
:105220001000100008000600000000000000000050
:10523000000000000000000000000000000000006E
:105240000000000000000000000000000004000258
:10525000000180018000C000C000600060006000AC
:105260006000600060006000C000C000800080013D
:105270000001000200040000000000000200040021
:10528000080018001000300030006000600060006E
:105290006000600060006000300030001000180006
:1052A00008000400020000000000000000000000F0
:1052B000000000004000400040004E0E5C07F0017E
:1052C000F0015C074E0E400040004000000000006E
:1052D00000000000000000000000000000000000CE
:1052E000000000000000400040004000400040007E
:1052F000FE0F400040004000400040000000000061
:10530000000000000000000000000000000000009D
:10531000000000000000000000000000000000008D
:105320000000000000000000000000000C001C0055
:10533000100010000800060000000000000000003F
:10534000000000000000000000000000000000005D
:10535000FE07000000000000000000000000000048
:10536000000000000000000000000000000000003D
:10537000000000000000000000000000000000002D
:105380000000000000000000000000001C001C00E5
:105390001C000000000000000000000000040006E7
:1053A0000002000300010001800080004000400076
:1053B00060002000200010001000080008000C0011
:1053C00004000600020000000000000000000000D1
:1053D0000000F00098010C030C0306060606060602
:1053E000060606060606060606060C030C039801CA
:1053F000F0000000000000000000000000000000BD
:105400000000400060007C00600060006000600000
:10541000600060006000600060006000600060008C
:10542000FC0300000000000000000000000000007D
:105430000000F80084010203060306030003800154
:105440008001C00020001000080204020202FE03D6
:10545000FE0300000000000000000000000000004B
:1054600000007800C4008601860186018001C0002A
:105470007000800100010003060306030603840197
:10548000F800000000000000000000000000000024
:1054900000018001C001C001A001900190018801BC
:1054A000840184018201FE07800180018001800166
:1054B000E007000000000000000000000000000005
:1054C0000000FC03FC030400040004000400F400DA
:1054D0008C01040300030003060306038201840118
:1054E000F8000000000000000000000000000000C4
:1054F0000000E00118030C030C0004000600E601A4
:1055000016030E0606060606060604060C02180317
:10551000F00000000000000000000000000000009B
:105520000000F807FC070C020401040100018000E0
:1055300080004000400040006000600060006000AB
:1055400060000000000000000000000000000000FB
:105550000000F8010C030606060606060E023C03D0
:10556000F000CC01040306060606060606060C0338
:10557000F00100000000000000000000000000003A
:105580000000F0000C010C030602060606060606E3
:1055900006078C0678060006000300030C018C0148
:1055A0007800000000000000000000000000000083
:1055B00000000000000000000000E000E000E0004B
:1055C000000000000000000000000000E000E0001B
:1055D000E0000000000000000000000000000000EB
:1055E00000000000000000000000000060006000FB
:1055F000000000000000000000000000000060004B
:1056000060004000200000000000000000000000DA
:10561000000400020001800040002000100008008B
:10562000040008001000200040008000000100027B
:105630000004000000000000000000000000000066
:10564000000000000000000000000000FE07000055
:10565000000000000000FE07000000000000000045
:10566000000000000000000000000000000000003A
:10567000040008001000200040008000000100022B
:10568000000400020001800040002000100008001B
:105690000400000000000000000000000000000006
:1056A000F0010C030206020606060606000380014E
:1056B000600020002000200000000000700070004A
:1056C000700000000000000000000000000000006A
:1056D0000000E00138060804CC0A640B26092609FC
:1056E000160916099609960566030C080C0418029B
:1056F000E0010000000000000000000000000000C9
:105700000000600060007000D000D000C800880178
:1057100088018801F8010403040304030406060653
:105720000F0F00000000000000000000000000005B
:105730000000FF0086010603060306030603860138
:10574000FE00060306020606060606060606060311
:10575000FF01000000000000000000000000000049
:105760000000E00718060C040C0404000600060004
:10577000060006000600060006040C040C021801D0
:10578000F000000000000000000000000000000029
:1057900000007F00860106030603060606060606CD
:1057A0000606060606060606060606030603C601E4
:1057B0007F0000000000000000000000000000006A
:1057C0000000FF03060206040600060086008600AD
:1057D000FE00860086000600060006040604060297
:1057E000FF030000000000000000000000000000B7
:1057F0000000FF0306030604060406008600860078
:10580000FE00860086000600060006000600060070
:105810000F00000000000000000000000000000079
:105820000000F00218030C020C020400060006003F
:1058300006000600C60F060306030C030C0318033C
:10584000F000000000000000000000000000000068
:1058500000000F0F060606060606060606060606E2
:10586000FE070606060606060606060606060606DF
:105870000F0F00000000000000000000000000000A
:105880000000FC03600060006000600060006000D9
:105890006000600060006000600060006000600008
:1058A000FC030000000000000000000000000000F9
:1058B0000000F00F800180018001800180018001E3
:1058C00080018001800180018001800180018001D0
:1058D00080018601C6007C0000000000000000007E
:1058E0000000CF070601860046004600260036006D
:1058F0003E006E00E600C600C601860106030607EC
:105900008F0F0000000000000000000000000000F9
:1059100000000F0006000600060006000600060054
:10592000060006000600060006000604060406023D
:10593000FF03000000000000000000000000000065
:1059400000000F0F0E070E070E079A069A069A061A
:105950009A065A0672067206720672062206220617
:10596000270F000000000000000000000000000001
:105970000000070E0E040E041A041A043204620416
:105980006204C204C204820502070207020602067C
:1059900007040000000000000000000000000000FC
:1059A0000000F00098010C030C020606060606062D
:1059B000060606060606060606060C020C039801F5
:1059C000F0000000000000000000000000000000E7
:1059D0000000FF0106030606060606060606060682
:1059E0000603FE010600060006000600060006008B
:1059F0000F00000000000000000000000000000098
:105A00000000F00098010C030C02060606060606CC
:105A1000060606060606060676064C028C03880174
:105A2000F0018007000300000000000000000000FB
:105A30000000FF0106030606060606060606060324
:105A4000FE006600C600C600860186010603060346
:105A50000F0E000000000000000000000000000029
:105A60000000F8040C070604060406000E003C00C3
:105A7000F000C003000300060206020606060E033D
:105A8000F201000000000000000000000000000023
:105A90000000FE07620461086108600060006000A9
:105AA00060006000600060006000600060006000F6
:105AB000F0000000000000000000000000000000F6
:105AC00000000F0E0604060406040604060406047D
:105AD00006040604060406040604060406040C0272
